:100000000C9463000C948B000C948B000C948B006C
:100010000C948B000C948B000C948B000C948B0034
:100020000C948B000C948B000C948B000C94860326
:100030000C948B000C948B000C948B000C948B0014
:100040000C9444040C948B000C940A080C945C08E7
:100050000C948B000C948B000C948B000C948B00F4
:100060000C948B000C948B000000000024002700EF
:100070002A0000000000250028002B0000000000DE
:1000800023002600290004040404040404040202DA
:100090000202020203030303030301020408102007
:1000A0004080010204081020010204081020000012
:1000B0000007000201000003040600000000000029
:1000C00000008D00CB0911241FBECFEFD8E0DEBFAA
:1000D000CDBF11E0A0E0B1E0E0E7F5E102C005909E
:1000E0000D92AE37B107D9F712E0AEE7B1E001C02B
:1000F0001D92A237B107E1F710E0C6ECD0E004C0D2
:100100002297FE010E94B20AC23CD107C9F70E94A1
:1001100044060C94B60A0C9400008EE791E00E940D
:100120004202089590E080918101882309F491E0D2
:10013000909381018EE791E06CE370E00E94980259
:1001400066E970E080E090E00E949A048EE791E01A
:100150006AE570E00E9498020895EF92FF920F9373
:100160001F939C018B017A0183E0B9010E94500525
:1001700086E0B8010E94500585E0B7010E94500555
:100180001F910F91FF90EF9008950F931F9380910F
:100190006701909168018C01000F111F000F111F62
:1001A000080F191F809164010E942E05800F911F76
:1001B00066E070E00E944C0A7093680160936701EA
:1001C0000E948C042091690130916A0140916B0179
:1001D00050916C01621B730B840B950B2091940161
:1001E000309195014091960150919701261737075C
:1001F0004807590708F091C020918E0130918F0176
:10020000309391012093900180918C0190918D0108
:1002100090938F0180938E01809167019091680186
:1002200090938D0180938C01821B930B909393018B
:10023000809392010E948C046093940170939501C5
:10024000809396019093970180E592E060E071E0E1
:100250000E94AA07609190017091910180E592E05F
:100260004AE050E00E948B0780E592E063E171E094
:100270000E94AA0760918E0170918F0180E592E043
:100280004AE050E00E948B0780E592E062E271E074
:100290000E94AA0760918C0170918D0180E592E027
:1002A0004AE050E00E948B0780E592E06DE271E049
:1002B0000E94AA07609192017091930180E592E0FB
:1002C0004AE050E00E948B0780E592E06EE371E027
:1002D0000E94AA07609167017091680180E592E031
:1002E0004AE050E00E942E0780E592E00E947F06DF
:1002F00080E592E065E471E00E94AA078091980190
:10030000882329F080E592E066E571E004C080E58D
:1003100092E06FE571E00E94AD07809192019091AB
:100320009301823091051CF48F5F9F4F1CF4109253
:10033000980103C081E080939801809198018823FF
:1003400091F080916701909168018035910538F4B2
:1003500081E090E090938B0180938A0104C0109219
:100360008B0110928A0180918A0190918B010097F4
:1003700009F451C0019709F062C080E090E060E0AC
:1003800070E04FEF50E00E94AD008091660188233D
:1003900061F00E948C0460938601709387018093C2
:1003A000880190938901109266010E948C0420912B
:1003B0008601309187014091880150918901621B2B
:1003C000730B840B950B6152734080409040B8F1E1
:1003D0000E948C042091820130918301409184011C
:1003E00050918501621B730B840B950B6958734107
:1003F0008040904020F10E94920081E0809366014D
:100400000E948C0460938201709383018093840125
:100410009093850114C081E08093660180918101F1
:10042000882329F080E090E06FEF70E004C08FEF48
:1004300090E060E070E040E050E00E94AD001F916D
:100440000F91089580E592E040E052EC61E070E0A9
:100450000E9497088EE791E06AE070E00E947F03B7
:100460008091640160E00E94B00583E061E00E9439
:10047000B00586E061E00E94B00585E061E00E9481
:10048000B0050895FC01809199018C3090F480832F
:100490008F5F80939901815090E0FC01EE0FFF1F68
:1004A000E80FF91FE656FE4F88EB9BE092838183AD
:1004B00008958FEF80830895FC0120812C30B8F5DA
:1004C0008181992787FD909548E850E0481B590B9A
:1004D000440F551F440F551F6417750784F0828120
:1004E000992787FD909548E552E0481B590B440F2A
:1004F000551F440F551F641775070CF4AB0142508C
:100500005040CA01AA2797FDA095BA2F880F991FBE
:10051000AA1FBB1F4FB7F89430E0F901EE0FFF1F81
:10052000E20FF31FE656FE4F928381834FBF08957B
:10053000AF92BF92CF92DF92EF92FF920F931F93F1
:10054000CF93DF93EC019B0182E0603278070CF0DF
:1005500048C077FF03C020E030E005C0653B71056F
:1005600014F024EB30E000D000D0B901882777FDEB
:100570008095982F2981332727FD3095E8E8AE2E06
:10058000B12CA21AB30AAA0CBB1CAA0CBB1CCC240B
:10059000B7FCC094DC2CEA81FF27E7FDF09528E545
:1005A00032E02E1B3F0B220F331F220F331F442735
:1005B00037FD4095542FEDB7FEB721833283438337
:1005C000548320E030E040E050E004EBE02EF12CDA
:1005D000012D112D0E94C0079B010F900F900F90CD
:1005E0000F90CE01B9010E945C02DF91CF911F9163
:1005F0000F91FF90EF90DF90CF90BF90AF90089554
:10060000CF92DF92EF92FF921F93CF93DF93EC0193
:10061000162F7A01690188818C3008F064C0862F1A
:1006200061E00E94B005888190E0FC01EE0FFF1FA1
:10063000E80FF91FE656FE4F1F738081807C812BE7
:10064000808380E292E08E199F0964E070E00E944E
:10065000600A698380E699E08C199D0964E070E086
:100660000E94600A6A83A8818A2F6CE00E94400A77
:10067000682F70E0AB01440F551F460F571F440F02
:10068000551F440F551F20E030E0C901840F951F0E
:10069000FC01EE0FFF1FE80FF91FE656FE4F8081A9
:1006A00086FD15C02F5F3F4F2C30310571F724C0F8
:1006B0001092800082E08093810010928500109259
:1006C0008400B19A80916F00826080936F008A2FBE
:1006D00090E0FC01EE0FFF1FE80FF91FE656FE4FFA
:1006E0008081806480838881DF91CF911F91FF900A
:1006F000EF90DF90CF900895672BD1F2E8CF40E2E2
:1007000052E020E639E00E94000308951F920F9204
:100710000FB60F9211242F933F934F935F936F93D4
:100720007F938F939F93AF93BF93EF93FF938091AA
:10073000BE0187FF05C010928500109284002BC077
:100740002091BE01332727FD30958091990190E0DB
:100750002817390704F58091BE01992787FD9095E8
:10076000FC01EE0FFF1FE80FF91FE656FE4F8081D8
:1007700086FF11C08091BE01992787FD9095FC01ED
:10078000EE0FFF1FE80FF91FE656FE4F80818F73B3
:1007900060E00E94EF058091BE018F5F8093BE01F3
:1007A0002091BE01332727FD30958091990190E07B
:1007B000281739070CF04EC08091BE018C300CF028
:1007C00049C020918400309185008091BE01992715
:1007D00087FD9095FC01EE0FFF1FE80FF91FE6560D
:1007E000FE4F81819281280F391F30938900209319
:1007F00088008091BE01992787FD9095FC01EE0F3E
:10080000FF1FE80FF91FE656FE4F808186FF2BC0C1
:100810008091BE01992787FD9095FC01EE0FFF1F87
:10082000E80FF91FE656FE4F80818F7361E00E944A
:10083000EF0519C080E49CE905C080918400909187
:100840008500049690938900809388008FEF8093B1
:10085000BE0109C080918400909185000496805467
:100860009C4940F3EACFFF91EF91BF91AF919F91E7
:100870008F917F916F915F914F913F912F910F9049
:100880000FBE0F901F9018951F920F920FB60F92E8
:1008900011242F933F938F939F93AF93BF93809196
:1008A000C3019091C401A091C501B091C6013091DE
:1008B000C7010196A11DB11D232F2D5F2D3720F0FB
:1008C0002D570196A11DB11D2093C7018093C3012F
:1008D0009093C401A093C501B093C6018091BF015C
:1008E0009091C001A091C101B091C2010196A11DDA
:1008F000B11D8093BF019093C001A093C101B0933B
:10090000C201BF91AF919F918F913F912F910F9015
:100910000FBE0F901F9018958FB7F8942091C301C8
:100920003091C4014091C5015091C6018FBFB901FA
:10093000CA0108959B01AC017FB7F8948091BF0173
:100940009091C001A091C101B091C20166B5A89B70
:1009500005C06F3F19F00196A11DB11D7FBFBA2FD1
:10096000A92F982F8827860F911DA11DB11D62E028
:10097000880F991FAA1FBB1F6A95D1F7BC012DC014
:10098000FFB7F8948091BF019091C001A091C1017F
:10099000B091C201E6B5A89B05C0EF3F19F00196E2
:1009A000A11DB11DFFBFBA2FA92F982F88278E0F29
:1009B000911DA11DB11DE2E0880F991FAA1FBB1F49
:1009C000EA95D1F7861B970B885E9340C8F22150B9
:1009D00030404040504068517C4F21153105410561
:1009E000510571F60895789484B5826084BD84B50C
:1009F000816084BD85B5826085BD85B5816085BD1A
:100A0000EEE6F0E0808181608083E1E8F0E0108232
:100A1000808182608083808181608083E0E8F0E073
:100A2000808181608083E1EBF0E08081846080835D
:100A3000E0EBF0E0808181608083EAE7F0E0808194
:100A400084608083808182608083808181608083F4
:100A50008081806880831092C1000895982F8E3025
:100A600008F09E50977080916D018295880F880FD5
:100A7000807C892B80937C0080917A0080648093B5
:100A80007A0080917A0086FDFCCF20917800409119
:100A90007900942F80E030E0282B392BC90108958C
:100AA0001F93CF93DF93182FEB0161E00E94B005F5
:100AB000209709F44AC0CF3FD10509F449C0E12F7E
:100AC000F0E0E255FF4F84918330C1F0843028F488
:100AD000813051F08230B1F50CC0863019F1873089
:100AE00049F1843079F514C084B5806884BDC7BDF0
:100AF00033C084B5806284BDC8BD2EC080918000A3
:100B0000806880938000D0938900C093880024C0BF
:100B100080918000806280938000D0938B00C0938E
:100B20008A001AC08091B00080688093B000C093A2
:100B3000B30012C08091B00080628093B000C09377
:100B4000B4000AC0C038D1051CF4812F60E002C097
:100B5000812F61E00E94EF05DF91CF911F910895F1
:100B6000CF93DF93482F50E0CA0186569F4FFC0178
:100B700034914A575F4FFA018491882369F190E0DC
:100B8000880F991FFC01E859FF4FA591B491FC0112
:100B9000EE58FF4FC591D491662351F42FB7F894C6
:100BA0008C91932F909589238C93888189230BC0F6
:100BB000623061F42FB7F8948C91932F909589232C
:100BC0008C938881832B88832FBF06C09FB7F894AE
:100BD0008C91832B8C939FBFDF91CF910895482FE9
:100BE00050E0CA0182559F4FFC012491CA018656EC
:100BF0009F4FFC0194914A575F4FFA013491332380
:100C000009F440C0222351F1233071F0243028F43C
:100C10002130A1F0223011F514C02630B1F0273078
:100C2000C1F02430D9F404C0809180008F7703C0D4
:100C3000809180008F7D8093800010C084B58F7775
:100C400002C084B58F7D84BD09C08091B0008F77CC
:100C500003C08091B0008F7D8093B000E32FF0E05F
:100C6000EE0FFF1FEE58FF4FA591B4912FB7F894E8
:100C7000662321F48C919095892302C08C91892B55
:100C80008C932FBF08950895CF93DF930E94F304B0
:100C90000E9443060E942202C5E4D8E00E94C500DB
:100CA0002097E1F30E944508F9CFCF92DF92EF92AF
:100CB000FF920F931F93CF93DF937C016B018A0107
:100CC000C0E0D0E00FC0D6016D916D01D701ED916C
:100CD000FC910190F081E02DC7010995C80FD91F43
:100CE000015010400115110571F7CE01DF91CF9130
:100CF0001F910F91FF90EF90DF90CF900895EF92AA
:100D0000FF920F931F938C01DC01ED91FC910190F8
:100D1000F081E02D6DE009957C01D801ED91FC9109
:100D20000190F081E02DC8016AE009959C012E0D2B
:100D30003F1DC9011F910F91FF90EF900895CF9330
:100D4000DF93EC016115710519F420E030E00FC06C
:100D5000DB010D900020E9F71197A61BB70BE88186
:100D6000F9810280F381E02DAD0109959C01C90153
:100D7000DF91CF9108954F925F927F928F929F92D1
:100D8000AF92BF92CF92DF92EF92FF920F931F9399
:100D9000DF93CF93CDB7DEB7A1970FB6F894DEBF40
:100DA0000FBECDBF2C01742ECB01223008F42AE0F7
:100DB00019A231E2C32ED12CCC0EDD1E822E992435
:100DC000AA24BB24672D752FA50194010E94730AE4
:100DD00079018A01C801B701A50194010E94210A85
:100DE000472D461B0894C108D1084A3014F4405DD1
:100DF00001C0495CF6014083E114F10401051105CD
:100E000021F07E2C5F2DC801DDCFC201B6010E940A
:100E10009F06A1960FB6F894DEBF0FBECDBFCF914F
:100E2000DF911F910F91FF90EF90DF90CF90BF90D7
:100E3000AF909F908F907F905F904F900895DC01CE
:100E40002115310541F4ED91FC910190F081E02DE7
:100E5000642F099508950E94BB060895CF92DF92F2
:100E6000EF92FF920F931F936C017B019A0100E0B8
:100E700010E0B801A7010E941F078C01C6010E9463
:100E80007F06080F191FC8011F910F91FF90EF9067
:100E9000DF90CF900895CF92DF92EF92FF920F9361
:100EA0001F93CF93DF93EC016A017B01211531057C
:100EB00041F4E881F9810190F081E02D642F0995DA
:100EC0001FC02A303105D1F477FF17C0E881F981BE
:100ED0000190F081E02D6DE209958C0144275527A2
:100EE000BA014C195D096E097F09CE012AE00E9402
:100EF000BB069801280F391F04C02AE00E94BB06D8
:100F00009C01C901DF91CF911F910F91FF90EF904C
:100F1000DF90CF900895CF92DF92EF92FF920F93E0
:100F20001F936C017B019A010027F7FC0095102F9D
:100F3000B801A7010E944B078C01C6010E947F06E1
:100F4000080F191FC8011F910F91FF90EF90DF90BC
:100F5000CF9008950E949F060895EF92FF920F93FD
:100F60001F937C010E949F068C01C7010E947F068F
:100F7000080F191FC8011F910F91FF90EF9008955E
:100F80002F923F924F925F926F927F928F929F9299
:100F9000AF92BF92CF92DF92EF92FF920F931F9387
:100FA000DF93CF93CDB7DEB73B014C0119012A0186
:100FB0006D897E898F89988D6A197B098C099D09B5
:100FC000621A730A840A950AA40193010E94210AF5
:100FD000E218F30804091509A80197010E94950A6F
:100FE0002A0D3B1D4C1D5D1DB901CA01CF91DF913A
:100FF0001F910F91FF90EF90DF90CF90BF90AF9037
:101000009F908F907F906F905F904F903F902F9028
:10101000089508951F920F920FB60F9211242F93E7
:101020003F934F938F939F93EF93FF938091C000D3
:1010300082FD1DC04091C600209108023091090236
:101040002F5F3F4F2F73307080910A0290910B02F7
:101050002817390771F0E0910802F0910902E8536E
:10106000FE4F4083309309022093080202C0809112
:10107000C600FF91EF919F918F914F913F912F91DA
:101080000F900FBE0F901F901895E0915C02F091A9
:101090005D02E05CFF4F8191919120813181805C04
:1010A0009F4F821B930B60E470E00E94600A892BC3
:1010B00011F00E94090808951F920F920FB60F9227
:1010C00011242F933F938F939F93EF93FF9320913E
:1010D0004C0230914D0280914E0290914F022817A0
:1010E000390731F48091C1008F7D8093C10014C015
:1010F000E0914E02F0914F02E45FFD4F208180911C
:101100004E0290914F0201968F73907090934F0210
:1011100080934E022093C600FF91EF919F918F9193
:101120003F912F910F900FBE0F901F901895AF9287
:10113000BF92DF92EF92FF920F931F93CF93DF93B3
:10114000EC017A018B01DD24403081EE580780E00C
:10115000680780E0780711F0DD24D39491E0A92E90
:10116000B12CEC89FD89DD2069F0C50108A002C021
:10117000880F991F0A94E2F7808360E079E08DE39D
:1011800090E005C0108260E874E88EE190E0A8016C
:1011900097010E94730A21503040404050405695BC
:1011A00047953795279580E12030380720F0DD20DE
:1011B00011F0DD24D6CFE889F9893083EA89FB89EB
:1011C000208319A2EE89FF89408121E030E0C90126
:1011D0000C8C02C0880F991F0A94E2F7482B4083B9
:1011E000EE89FF894081C9010D8C02C0880F991FCB
:1011F0000A94E2F7482B4083EE89FF894081C901B8
:101200000E8C02C0880F991F0A94E2F7482B408386
:10121000EE89FF8980810F8C02C0220F331F0A9450
:10122000E2F7209528232083DF91CF911F910F9122
:10123000FF90EF90DF90BF90AF900895DC011C9677
:10124000ED91FC911D97E05CFF4F81919191208180
:101250003181805C9F4F821B930B60E470E00E94A1
:10126000600A0895DC011C96ED91FC911D97E05CED
:10127000FF4F20813181E054F040DF01AE5BBF4F72
:101280008D919C9111972817390719F42FEF3FEF93
:1012900007C08D919C91E80FF91F8081282F30E0C5
:1012A000C9010895DC011C96ED91FC911D97E05C4D
:1012B000FF4F20813181E054F040DF01AE5BBF4F32
:1012C0008D919C9111972817390719F42FEF3FEF53
:1012D00010C08D919C911197E80FF91F20818D917D
:1012E0009C91119701968F73907011969C938E9399
:1012F00030E0C9010895DC0191968C919197882383
:1013000039F05496ED91FC915597808186FFF9CF85
:1013100091961C920895CF93DF93EC01EE85FF85A3
:10132000E05CFF4F20813181E054F0402F5F3F4F60
:101330002F733070DF01AE5BBF4F8D919C91119781
:1013400028173907D1F3E05CFF4F80819181E05489
:10135000F040E80FF91F6083EE85FF85E05CFF4FEA
:1013600031832083EE89FF89208181E090E00F8C1A
:1013700002C0880F991F0A94E2F7282B208381E08E
:1013800089A3EC89FD8980818064808381E090E07D
:10139000DF91CF910895109253021092520288EE7D
:1013A00093E0A0E0B0E08093540290935502A093A4
:1013B0005602B093570282E791E0909351028093D6
:1013C000500288EC91E090935D0280935C028CE087
:1013D00092E090935F0280935E0285EC90E09093A0
:1013E00061028093600284EC90E0909363028093AA
:1013F000620280EC90E0909365028093640281EC3D
:1014000090E0909367028093660282EC90E0909364
:1014100069028093680286EC90E090936B0280935F
:101420006A0284E080936C0283E080936D0287E01F
:1014300080936E0285E080936F0281E0809370025A
:101440000895629FD001739FF001829FE00DF11D0E
:10145000649FE00DF11D929FF00D839FF00D749F2E
:10146000F00D659FF00D9927729FB00DE11DF91FDA
:10147000639FB00DE11DF91FBD01CF011124089537
:10148000991B79E004C0991F961708F0961B881FD6
:101490007A95C9F780950895AA1BBB1B51E107C037
:1014A000AA1FBB1FA617B70710F0A61BB70B881FF4
:1014B000991F5A95A9F780959095BC01CD01089583
:1014C00097FB092E07260AD077FD04D0E5DF06D06A
:1014D00000201AF4709561957F4F0895F6F7909566
:1014E00081959F4F0895A1E21A2EAA1BBB1BFD01F7
:1014F0000DC0AA1FBB1FEE1FFF1FA217B307E407F3
:10150000F50720F0A21BB30BE40BF50B661F771F4A
:10151000881F991F1A9469F760957095809590952A
:101520009B01AC01BD01CF01089597FB092E052653
:101530000ED057FD04D0D7DF0AD0001C38F45095E8
:101540004095309521953F4F4F4F5F4F0895F6F7E7
:1015500090958095709561957F4F8F4F9F4F08951F
:10156000EE0FFF1F0590F491E02D0994F894FFCF42
:101570006C6173744C6173744C61737450696E6701
:101580003A20006C6173744C61737450696E673AF1
:1015900020006C61737450696E673A200053756D5A
:1015A000206F66206368616E6765733A200070691A
:1015B0006E673A20004368616E676520616C6C6FEE
:1015C0007765643A2000544F54414C4C5921004EE9
:1015D0004F5421000E0001FF00190000000100001F
:0E15E00000008B0955061E09520932097B09CD
:00000001FF
